{
  "_format": "hh-sol-artifact-1",
  "contractName": "IntegrityLog",
  "sourceName": "contracts/IntegrityLog.sol",
  "abi": [
    {
      "inputs": [
        {
          "internalType": "address",
          "name": "_deviceRegistry",
          "type": "address"
        }
      ],
      "stateMutability": "nonpayable",
      "type": "constructor"
    },
    {
      "anonymous": false,
      "inputs": [
        {
          "indexed": true,
          "internalType": "bytes32",
          "name": "deviceId",
          "type": "bytes32"
        },
        {
          "indexed": false,
          "internalType": "string",
          "name": "alertType",
          "type": "string"
        },
        {
          "indexed": false,
          "internalType": "bytes32",
          "name": "dataHash",
          "type": "bytes32"
        },
        {
          "indexed": false,
          "internalType": "uint256",
          "name": "timestamp",
          "type": "uint256"
        }
      ],
      "name": "AlertTriggered",
      "type": "event"
    },
    {
      "anonymous": false,
      "inputs": [
        {
          "indexed": true,
          "internalType": "bytes32",
          "name": "merkleRoot",
          "type": "bytes32"
        },
        {
          "indexed": false,
          "internalType": "uint256",
          "name": "batchSize",
          "type": "uint256"
        },
        {
          "indexed": false,
          "internalType": "string",
          "name": "ipfsHash",
          "type": "string"
        },
        {
          "indexed": false,
          "internalType": "uint256",
          "name": "timestamp",
          "type": "uint256"
        }
      ],
      "name": "BatchLogged",
      "type": "event"
    },
    {
      "anonymous": false,
      "inputs": [
        {
          "indexed": true,
          "internalType": "bytes32",
          "name": "deviceId",
          "type": "bytes32"
        },
        {
          "indexed": true,
          "internalType": "bytes32",
          "name": "dataHash",
          "type": "bytes32"
        },
        {
          "indexed": false,
          "internalType": "bytes32",
          "name": "proofHash",
          "type": "bytes32"
        },
        {
          "indexed": false,
          "internalType": "uint256",
          "name": "timestamp",
          "type": "uint256"
        },
        {
          "indexed": false,
          "internalType": "bool",
          "name": "verified",
          "type": "bool"
        }
      ],
      "name": "DataLogged",
      "type": "event"
    },
    {
      "inputs": [],
      "name": "admin",
      "outputs": [
        {
          "internalType": "address",
          "name": "",
          "type": "address"
        }
      ],
      "stateMutability": "view",
      "type": "function"
    },
    {
      "inputs": [
        {
          "internalType": "string",
          "name": "",
          "type": "string"
        }
      ],
      "name": "alertThresholds",
      "outputs": [
        {
          "internalType": "uint256",
          "name": "",
          "type": "uint256"
        }
      ],
      "stateMutability": "view",
      "type": "function"
    },
    {
      "inputs": [
        {
          "internalType": "uint256",
          "name": "",
          "type": "uint256"
        }
      ],
      "name": "batchLogs",
      "outputs": [
        {
          "internalType": "bytes32",
          "name": "merkleRoot",
          "type": "bytes32"
        },
        {
          "internalType": "uint256",
          "name": "batchSize",
          "type": "uint256"
        },
        {
          "internalType": "uint256",
          "name": "timestamp",
          "type": "uint256"
        },
        {
          "internalType": "string",
          "name": "ipfsHash",
          "type": "string"
        }
      ],
      "stateMutability": "view",
      "type": "function"
    },
    {
      "inputs": [
        {
          "internalType": "bytes32",
          "name": "",
          "type": "bytes32"
        },
        {
          "internalType": "uint256",
          "name": "",
          "type": "uint256"
        }
      ],
      "name": "deviceLogs",
      "outputs": [
        {
          "internalType": "bytes32",
          "name": "deviceId",
          "type": "bytes32"
        },
        {
          "internalType": "bytes32",
          "name": "dataHash",
          "type": "bytes32"
        },
        {
          "internalType": "bytes32",
          "name": "proofHash",
          "type": "bytes32"
        },
        {
          "internalType": "uint256",
          "name": "timestamp",
          "type": "uint256"
        },
        {
          "internalType": "uint256",
          "name": "blockNumber",
          "type": "uint256"
        },
        {
          "internalType": "bool",
          "name": "verified",
          "type": "bool"
        }
      ],
      "stateMutability": "view",
      "type": "function"
    },
    {
      "inputs": [],
      "name": "deviceRegistry",
      "outputs": [
        {
          "internalType": "contract DeviceRegistry",
          "name": "",
          "type": "address"
        }
      ],
      "stateMutability": "view",
      "type": "function"
    },
    {
      "inputs": [
        {
          "internalType": "uint256",
          "name": "offset",
          "type": "uint256"
        },
        {
          "internalType": "uint256",
          "name": "limit",
          "type": "uint256"
        }
      ],
      "name": "getBatchLogs",
      "outputs": [
        {
          "components": [
            {
              "internalType": "bytes32",
              "name": "merkleRoot",
              "type": "bytes32"
            },
            {
              "internalType": "uint256",
              "name": "batchSize",
              "type": "uint256"
            },
            {
              "internalType": "uint256",
              "name": "timestamp",
              "type": "uint256"
            },
            {
              "internalType": "string",
              "name": "ipfsHash",
              "type": "string"
            }
          ],
          "internalType": "struct IntegrityLog.BatchLog[]",
          "name": "",
          "type": "tuple[]"
        }
      ],
      "stateMutability": "view",
      "type": "function"
    },
    {
      "inputs": [
        {
          "internalType": "bytes32",
          "name": "deviceId",
          "type": "bytes32"
        },
        {
          "internalType": "uint256",
          "name": "offset",
          "type": "uint256"
        },
        {
          "internalType": "uint256",
          "name": "limit",
          "type": "uint256"
        }
      ],
      "name": "getDeviceLogs",
      "outputs": [
        {
          "components": [
            {
              "internalType": "bytes32",
              "name": "deviceId",
              "type": "bytes32"
            },
            {
              "internalType": "bytes32",
              "name": "dataHash",
              "type": "bytes32"
            },
            {
              "internalType": "bytes32",
              "name": "proofHash",
              "type": "bytes32"
            },
            {
              "internalType": "uint256",
              "name": "timestamp",
              "type": "uint256"
            },
            {
              "internalType": "uint256",
              "name": "blockNumber",
              "type": "uint256"
            },
            {
              "internalType": "bool",
              "name": "verified",
              "type": "bool"
            }
          ],
          "internalType": "struct IntegrityLog.LogEntry[]",
          "name": "",
          "type": "tuple[]"
        }
      ],
      "stateMutability": "view",
      "type": "function"
    },
    {
      "inputs": [
        {
          "internalType": "uint256",
          "name": "limit",
          "type": "uint256"
        }
      ],
      "name": "getRecentLogs",
      "outputs": [
        {
          "components": [
            {
              "internalType": "bytes32",
              "name": "deviceId",
              "type": "bytes32"
            },
            {
              "internalType": "bytes32",
              "name": "dataHash",
              "type": "bytes32"
            },
            {
              "internalType": "bytes32",
              "name": "proofHash",
              "type": "bytes32"
            },
            {
              "internalType": "uint256",
              "name": "timestamp",
              "type": "uint256"
            },
            {
              "internalType": "uint256",
              "name": "blockNumber",
              "type": "uint256"
            },
            {
              "internalType": "bool",
              "name": "verified",
              "type": "bool"
            }
          ],
          "internalType": "struct IntegrityLog.LogEntry[]",
          "name": "",
          "type": "tuple[]"
        }
      ],
      "stateMutability": "view",
      "type": "function"
    },
    {
      "inputs": [],
      "name": "getStats",
      "outputs": [
        {
          "internalType": "uint256",
          "name": "",
          "type": "uint256"
        },
        {
          "internalType": "uint256",
          "name": "",
          "type": "uint256"
        },
        {
          "internalType": "uint256",
          "name": "",
          "type": "uint256"
        }
      ],
      "stateMutability": "view",
      "type": "function"
    },
    {
      "inputs": [
        {
          "internalType": "bytes32",
          "name": "merkleRoot",
          "type": "bytes32"
        },
        {
          "internalType": "uint256",
          "name": "batchSize",
          "type": "uint256"
        },
        {
          "internalType": "string",
          "name": "ipfsHash",
          "type": "string"
        }
      ],
      "name": "logBatch",
      "outputs": [],
      "stateMutability": "nonpayable",
      "type": "function"
    },
    {
      "inputs": [
        {
          "internalType": "bytes32",
          "name": "",
          "type": "bytes32"
        }
      ],
      "name": "logCounts",
      "outputs": [
        {
          "internalType": "uint256",
          "name": "",
          "type": "uint256"
        }
      ],
      "stateMutability": "view",
      "type": "function"
    },
    {
      "inputs": [
        {
          "internalType": "bytes32",
          "name": "deviceId",
          "type": "bytes32"
        },
        {
          "internalType": "bytes32",
          "name": "dataHash",
          "type": "bytes32"
        },
        {
          "internalType": "bytes32",
          "name": "proofHash",
          "type": "bytes32"
        },
        {
          "internalType": "bool",
          "name": "verified",
          "type": "bool"
        }
      ],
      "name": "logData",
      "outputs": [],
      "stateMutability": "nonpayable",
      "type": "function"
    },
    {
      "inputs": [
        {
          "internalType": "bytes32",
          "name": "",
          "type": "bytes32"
        }
      ],
      "name": "processedProofs",
      "outputs": [
        {
          "internalType": "bool",
          "name": "",
          "type": "bool"
        }
      ],
      "stateMutability": "view",
      "type": "function"
    },
    {
      "inputs": [
        {
          "internalType": "address",
          "name": "_verifierContract",
          "type": "address"
        }
      ],
      "name": "setVerifierContract",
      "outputs": [],
      "stateMutability": "nonpayable",
      "type": "function"
    },
    {
      "inputs": [],
      "name": "totalLogs",
      "outputs": [
        {
          "internalType": "uint256",
          "name": "",
          "type": "uint256"
        }
      ],
      "stateMutability": "view",
      "type": "function"
    },
    {
      "inputs": [
        {
          "internalType": "bytes32",
          "name": "deviceId",
          "type": "bytes32"
        },
        {
          "internalType": "string",
          "name": "alertType",
          "type": "string"
        },
        {
          "internalType": "bytes32",
          "name": "dataHash",
          "type": "bytes32"
        },
        {
          "internalType": "uint256",
          "name": "value",
          "type": "uint256"
        }
      ],
      "name": "triggerAlert",
      "outputs": [],
      "stateMutability": "nonpayable",
      "type": "function"
    },
    {
      "inputs": [
        {
          "internalType": "string",
          "name": "alertType",
          "type": "string"
        },
        {
          "internalType": "uint256",
          "name": "threshold",
          "type": "uint256"
        }
      ],
      "name": "updateAlertThreshold",
      "outputs": [],
      "stateMutability": "nonpayable",
      "type": "function"
    },
    {
      "inputs": [],
      "name": "verifierContract",
      "outputs": [
        {
          "internalType": "address",
          "name": "",
          "type": "address"
        }
      ],
      "stateMutability": "view",
      "type": "function"
    }
  ],
  "bytecode": "0x608060405234801561001057600080fd5b50604051611a12380380611a1283398101604081905261002f91610121565b60068054336001600160a01b031991821617909155600080549091166001600160a01b0383161790556040516e484947485f48454152545f5241544560881b8152606490600890600f01908152604051908190036020018120919091556f484947485f54454d504552415455524560801b8152602890600890601001908152604051908190036020018120919091556e4c4f575f54454d504552415455524560881b8152600090600890600f01908152604051908190036020018120919091556c484947485f48554d494449545960981b8152605a90600890600d019081526040519081900360200190205550610151565b60006020828403121561013357600080fd5b81516001600160a01b038116811461014a57600080fd5b9392505050565b6118b2806101606000396000f3fe608060405234801561001057600080fd5b50600436106101165760003560e01c8063ac8a04a1116100a2578063cf69568811610071578063cf695688146102f1578063e4ce066214610304578063e52e64f91461030d578063e747226c14610320578063f851a4401461033357600080fd5b8063ac8a04a114610249578063b17009de14610269578063bed2de64146102ab578063c59d4847146102ce57600080fd5b80635efb870a116100e95780635efb870a1461018c5780635ff59dfa146101b75780637b9d4e52146101ca578063839139c614610203578063a25da83c1461023657600080fd5b806304cf485d1461011b578063159dfcd9146101305780633079d78c1461015957806356a5cccd14610179575b600080fd5b61012e61012936600461113e565b610346565b005b61014361013e36600461117f565b61064e565b60405161015091906111e7565b60405180910390f35b61016c610167366004611272565b61085b565b604051610150919061129e565b61012e610187366004611361565b610a11565b60005461019f906001600160a01b031681565b6040516001600160a01b039091168152602001610150565b61012e6101c53660046113b4565b610c7d565b6101f56101d8366004611416565b805160208183018101805160088252928201919093012091525481565b604051908152602001610150565b6102266102113660046114c7565b60046020526000908152604090205460ff1681565b6040519015158152602001610150565b61012e6102443660046114e0565b610ccf565b6101f56102573660046114c7565b60026020526000908152604090205481565b61027c61027736600461117f565b610d71565b6040805196875260208701959095529385019290925260608401526080830152151560a082015260c001610150565b6102be6102b93660046114c7565b610dc8565b6040516101509493929190611510565b6102d6610e90565b60408051938452602084019290925290820152606001610150565b60075461019f906001600160a01b031681565b6101f560055481565b61016c61031b3660046114c7565b610f1e565b61012e61032e36600461153f565b610fa3565b60065461019f906001600160a01b031681565b6006546001600160a01b031633148061036957506007546001600160a01b031633145b61038e5760405162461bcd60e51b81526004016103859061159d565b60405180910390fd5b600054604051635ec8fe6b60e01b8152600481018690526001600160a01b0390911690635ec8fe6b90602401602060405180830381865afa1580156103d7573d6000803e3d6000fd5b505050506040513d601f19601f820116820180604052508101906103fb91906115c5565b61043b5760405162461bcd60e51b8152602060048201526011602482015270446576696365206e6f742061637469766560781b6044820152606401610385565b8261047c5760405162461bcd60e51b8152602060048201526011602482015270092dcecc2d8d2c840c8c2e8c240d0c2e6d607b1b6044820152606401610385565b816104be5760405162461bcd60e51b8152602060048201526012602482015271092dcecc2d8d2c840e0e4dedecc40d0c2e6d60731b6044820152606401610385565b60008281526004602052604090205460ff161561051d5760405162461bcd60e51b815260206004820152601760248201527f50726f6f6620616c72656164792070726f6365737365640000000000000000006044820152606401610385565b6040805160c08101825285815260208082018681528284018681524260608501908152436080860190815287151560a0870190815260008c81526001808852898220805480830182559083528883208a5160069092020190815596519087015593516002808701919091559251600386015590516004850155516005909301805460ff1916931515939093179092558881529152918220805491926105c1836115f8565b9091555050600580549060006105d6836115f8565b909155505060008381526004602052604090819020805460ff1916600117905551849086907fa0ed4b5a87b3e143b65a014de3712edb192350cb292e1eff42c2c7f128d302e19061063f9087904290889092835260208301919091521515604082015260600190565b60405180910390a35050505050565b60035460609083106106995760405162461bcd60e51b81526020600482015260146024820152734f6666736574206f7574206f6620626f756e647360601b6044820152606401610385565b60006106a58385611611565b6003549091508111156106b757506003545b60006106c38583611624565b67ffffffffffffffff8111156106db576106db611400565b60405190808252806020026020018201604052801561072c57816020015b60408051608081018252600080825260208083018290529282015260608082015282526000199092019101816106f95790505b509050845b82811015610850576003818154811061074c5761074c611637565b90600052602060002090600402016040518060800160405290816000820154815260200160018201548152602001600282015481526020016003820180546107939061164d565b80601f01602080910402602001604051908101604052809291908181526020018280546107bf9061164d565b801561080c5780601f106107e15761010080835404028352916020019161080c565b820191906000526020600020905b8154815290600101906020018083116107ef57829003601f168201915b5050505050815250508287836108229190611624565b8151811061083257610832611637565b60200260200101819052508080610848906115f8565b915050610731565b509150505b92915050565b600083815260016020526040902080546060919084106108b45760405162461bcd60e51b81526020600482015260146024820152734f6666736574206f7574206f6620626f756e647360601b6044820152606401610385565b60006108c08486611611565b82549091508111156108d0575080545b60006108dc8683611624565b67ffffffffffffffff8111156108f4576108f4611400565b60405190808252806020026020018201604052801561095457816020015b6040805160c08101825260008082526020808301829052928201819052606082018190526080820181905260a082015282526000199092019101816109125790505b509050855b82811015610a065783818154811061097357610973611637565b60009182526020918290206040805160c081018252600690930290910180548352600181015493830193909352600283015490820152600382015460608201526004820154608082015260059091015460ff16151560a0820152826109d88984611624565b815181106109e8576109e8611637565b602002602001018190525080806109fe906115f8565b915050610959565b509695505050505050565b6006546001600160a01b0316331480610a3457506007546001600160a01b031633145b610a505760405162461bcd60e51b81526004016103859061159d565b83610a935760405162461bcd60e51b8152602060048201526013602482015272125b9d985b1a59081b595c9adb19481c9bdbdd606a1b6044820152606401610385565b60008311610ad85760405162461bcd60e51b8152602060048201526012602482015271496e76616c69642062617463682073697a6560701b6044820152606401610385565b80610b195760405162461bcd60e51b8152602060048201526011602482015270092dcecc2d8d2c84092a08ca640d0c2e6d607b1b6044820152606401610385565b6000604051806080016040528086815260200185815260200142815260200184848080601f0160208091040260200160405190810160405280939291908181526020018383808284376000920182905250939094525050600380546001810182559152825160049091027fc2575a0e9e593c00f959f8c92f12db2869c3395a3b0502d05e2516446f71f85b810191825560208401517fc2575a0e9e593c00f959f8c92f12db2869c3395a3b0502d05e2516446f71f85c82015560408401517fc2575a0e9e593c00f959f8c92f12db2869c3395a3b0502d05e2516446f71f85d820155606084015193945084939192507fc2575a0e9e593c00f959f8c92f12db2869c3395a3b0502d05e2516446f71f85e0190610c3590826116d6565b505050847feda36e8bfc0dbc5a07227d6f6938c7d40a3e03dd308d507c22aae4ca9d9eea2185858542604051610c6e94939291906117bf565b60405180910390a25050505050565b6006546001600160a01b03163314610ca75760405162461bcd60e51b8152600401610385906117ea565b8060088484604051610cba92919061182c565b90815260405190819003602001902055505050565b6006546001600160a01b03163314610cf95760405162461bcd60e51b8152600401610385906117ea565b6001600160a01b038116610d4f5760405162461bcd60e51b815260206004820152601860248201527f496e76616c6964207665726966696572206164647265737300000000000000006044820152606401610385565b600780546001600160a01b0319166001600160a01b0392909216919091179055565b60016020528160005260406000208181548110610d8d57600080fd5b600091825260209091206006909102018054600182015460028301546003840154600485015460059095015493965091945092909160ff1686565b60038181548110610dd857600080fd5b9060005260206000209060040201600091509050806000015490806001015490806002015490806003018054610e0d9061164d565b80601f0160208091040260200160405190810160405280929190818152602001828054610e399061164d565b8015610e865780601f10610e5b57610100808354040283529160200191610e86565b820191906000526020600020905b815481529060010190602001808311610e6957829003601f168201915b5050505050905084565b600080600060055460038054905060008054906101000a90046001600160a01b03166001600160a01b0316636121898e6040518163ffffffff1660e01b8152600401602060405180830381865afa158015610eef573d6000803e3d6000fd5b505050506040513d601f19601f82011682018060405250810190610f13919061183c565b925092509250909192565b606060008267ffffffffffffffff811115610f3b57610f3b611400565b604051908082528060200260200182016040528015610f9b57816020015b6040805160c08101825260008082526020808301829052928201819052606082018190526080820181905260a08201528252600019909201910181610f595790505b509392505050565b6006546001600160a01b0316331480610fc657506007546001600160a01b031633145b610fe25760405162461bcd60e51b81526004016103859061159d565b600054604051635ec8fe6b60e01b8152600481018790526001600160a01b0390911690635ec8fe6b90602401602060405180830381865afa15801561102b573d6000803e3d6000fd5b505050506040513d601f19601f8201168201806040525081019061104f91906115c5565b61108f5760405162461bcd60e51b8152602060048201526011602482015270446576696365206e6f742061637469766560781b6044820152606401610385565b600884846040516110a192919061182c565b9081526020016040518091039020548110156110f75760405162461bcd60e51b815260206004820152601560248201527415985b1d594818995b1bddc81d1a1c995cda1bdb19605a1b6044820152606401610385565b847ffe62917fd8282724cfdaf8b9d7db6cd647af2e5f2aa468896732977c9d4a404985858542604051610c6e9493929190611855565b801515811461113b57600080fd5b50565b6000806000806080858703121561115457600080fd5b84359350602085013592506040850135915060608501356111748161112d565b939692955090935050565b6000806040838503121561119257600080fd5b50508035926020909101359150565b6000815180845260005b818110156111c7576020818501810151868301820152016111ab565b506000602082860101526020601f19601f83011685010191505092915050565b60006020808301818452808551808352604092508286019150828160051b87010184880160005b8381101561126457888303603f1901855281518051845287810151888501528681015187850152606090810151608091850182905290611250818601836111a1565b96890196945050509086019060010161120e565b509098975050505050505050565b60008060006060848603121561128757600080fd5b505081359360208301359350604090920135919050565b602080825282518282018190526000919060409081850190868401855b8281101561130b5781518051855286810151878601528581015186860152606080820151908601526080808201519086015260a09081015115159085015260c090930192908501906001016112bb565b5091979650505050505050565b60008083601f84011261132a57600080fd5b50813567ffffffffffffffff81111561134257600080fd5b60208301915083602082850101111561135a57600080fd5b9250929050565b6000806000806060858703121561137757600080fd5b8435935060208501359250604085013567ffffffffffffffff81111561139c57600080fd5b6113a887828801611318565b95989497509550505050565b6000806000604084860312156113c957600080fd5b833567ffffffffffffffff8111156113e057600080fd5b6113ec86828701611318565b909790965060209590950135949350505050565b634e487b7160e01b600052604160045260246000fd5b60006020828403121561142857600080fd5b813567ffffffffffffffff8082111561144057600080fd5b818401915084601f83011261145457600080fd5b81358181111561146657611466611400565b604051601f8201601f19908116603f0116810190838211818310171561148e5761148e611400565b816040528281528760208487010111156114a757600080fd5b826020860160208301376000928101602001929092525095945050505050565b6000602082840312156114d957600080fd5b5035919050565b6000602082840312156114f257600080fd5b81356001600160a01b038116811461150957600080fd5b9392505050565b84815283602082015282604082015260806060820152600061153560808301846111a1565b9695505050505050565b60008060008060006080868803121561155757600080fd5b85359450602086013567ffffffffffffffff81111561157557600080fd5b61158188828901611318565b9699909850959660408101359660609091013595509350505050565b6020808252600e908201526d139bdd08185d5d1a1bdc9a5e995960921b604082015260600190565b6000602082840312156115d757600080fd5b81516115098161112d565b634e487b7160e01b600052601160045260246000fd5b60006001820161160a5761160a6115e2565b5060010190565b80820180821115610855576108556115e2565b81810381811115610855576108556115e2565b634e487b7160e01b600052603260045260246000fd5b600181811c9082168061166157607f821691505b60208210810361168157634e487b7160e01b600052602260045260246000fd5b50919050565b601f8211156116d157600081815260208120601f850160051c810160208610156116ae5750805b601f850160051c820191505b818110156116cd578281556001016116ba565b5050505b505050565b815167ffffffffffffffff8111156116f0576116f0611400565b611704816116fe845461164d565b84611687565b602080601f83116001811461173957600084156117215750858301515b600019600386901b1c1916600185901b1785556116cd565b600085815260208120601f198616915b8281101561176857888601518255948401946001909101908401611749565b50858210156117865787850151600019600388901b60f8161c191681555b5050505050600190811b01905550565b81835281816020850137506000828201602090810191909152601f909101601f19169091010190565b8481526060602082015260006117d9606083018587611796565b905082604083015295945050505050565b60208082526022908201527f4f6e6c792061646d696e2063616e20706572666f726d2074686973206163746960408201526137b760f11b606082015260800190565b8183823760009101908152919050565b60006020828403121561184e57600080fd5b5051919050565b606081526000611869606083018688611796565b602083019490945250604001529291505056fea26469706673582212208a2c446176d5e45c5e6ead7755a4c864761ce739f7569416ea54ee807381f99d64736f6c63430008130033",
  "linkReferences": {},
  "deployedLinkReferences": {}
}