{"contracts/ZKPVerifier.sol":{"ZKPVerifier":{"abi":[{"inputs":[{"internalType":"address","name":"_deviceRegistry","type":"address"}],"stateMutability":"nonpayable","type":"constructor"},{"anonymous":false,"inputs":[{"indexed":true,"internalType":"bytes32","name":"deviceId","type":"bytes32"},{"indexed":false,"internalType":"bool","name":"success","type":"bool"},{"indexed":false,"internalType":"uint256","name":"timestamp","type":"uint256"}],"name":"AuthenticationAttempt","type":"event"},{"anonymous":false,"inputs":[{"indexed":true,"internalType":"bytes32","name":"deviceId","type":"bytes32"},{"indexed":true,"internalType":"address","name":"prover","type":"address"},{"indexed":false,"internalType":"bool","name":"success","type":"bool"},{"indexed":false,"internalType":"uint256","name":"timestamp","type":"uint256"}],"name":"ProofVerified","type":"event"},{"inputs":[],"name":"AUTH_WINDOW","outputs":[{"internalType":"uint256","name":"","type":"uint256"}],"stateMutability":"view","type":"function"},{"inputs":[],"name":"MAX_AUTH_ATTEMPTS","outputs":[{"internalType":"uint256","name":"","type":"uint256"}],"stateMutability":"view","type":"function"},{"inputs":[],"name":"admin","outputs":[{"internalType":"address","name":"","type":"address"}],"stateMutability":"view","type":"function"},{"inputs":[{"internalType":"bytes32","name":"","type":"bytes32"}],"name":"authAttemptCount","outputs":[{"internalType":"uint256","name":"","type":"uint256"}],"stateMutability":"view","type":"function"},{"inputs":[],"name":"deviceRegistry","outputs":[{"internalType":"contract DeviceRegistry","name":"","type":"address"}],"stateMutability":"view","type":"function"},{"inputs":[{"internalType":"bytes32","name":"deviceId","type":"bytes32"}],"name":"getAuthStats","outputs":[{"internalType":"uint256","name":"","type":"uint256"},{"internalType":"uint256","name":"","type":"uint256"},{"internalType":"bool","name":"","type":"bool"}],"stateMutability":"view","type":"function"},{"inputs":[],"name":"integrityLog","outputs":[{"internalType":"contract IntegrityLog","name":"","type":"address"}],"stateMutability":"view","type":"function"},{"inputs":[{"internalType":"bytes32","name":"","type":"bytes32"}],"name":"lastAuthTimestamp","outputs":[{"internalType":"uint256","name":"","type":"uint256"}],"stateMutability":"view","type":"function"},{"inputs":[{"internalType":"bytes32","name":"deviceId","type":"bytes32"}],"name":"resetAuthAttempts","outputs":[],"stateMutability":"nonpayable","type":"function"},{"inputs":[{"internalType":"address","name":"_integrityLog","type":"address"}],"name":"setIntegrityLog","outputs":[],"stateMutability":"nonpayable","type":"function"},{"inputs":[{"internalType":"bytes32","name":"deviceId","type":"bytes32"},{"internalType":"uint256[2]","name":"_pA","type":"uint256[2]"},{"internalType":"uint256[2][2]","name":"_pB","type":"uint256[2][2]"},{"internalType":"uint256[2]","name":"_pC","type":"uint256[2]"},{"internalType":"uint256[4]","name":"publicSignals","type":"uint256[4]"}],"name":"verifyAndAuthenticate","outputs":[{"internalType":"bool","name":"","type":"bool"}],"stateMutability":"nonpayable","type":"function"}],"evm":{"bytecode":{"linkReferences":{},"object":"608060405234801561001057600080fd5b50604051610a81380380610a8183398101604081905261002f91610062565b60048054336001600160a01b031991821617909155600080549091166001600160a01b0392909216919091179055610092565b60006020828403121561007457600080fd5b81516001600160a01b038116811461008b57600080fd5b9392505050565b6109e0806100a16000396000f3fe608060405234801561001057600080fd5b50600436106100a95760003560e01c80638d2c5879116100715780638d2c58791461013d578063a1ecf95d14610150578063b8bdf9b814610170578063cb1518a9146101a0578063cc42425f146101a8578063f851a440146101cb57600080fd5b80630a60eb01146100ae5780630e248d4f146100c3578063243791bb146100d65780634a8bba1b146101095780635efb870a14610112575b600080fd5b6100c16100bc3660046107c6565b6101de565b005b6100c16100d13660046107f6565b610233565b6100f66100e43660046107f6565b60026020526000908152604090205481565b6040519081526020015b60405180910390f35b6100f661012c81565b600054610125906001600160a01b031681565b6040516001600160a01b039091168152602001610100565b600154610125906001600160a01b031681565b6100f661015e3660046107f6565b60036020526000908152604090205481565b61018361017e3660046107f6565b61027b565b604080519384526020840192909252151590820152606001610100565b6100f6600381565b6101bb6101b6366004610831565b6102e5565b6040519015158152602001610100565b600454610125906001600160a01b031681565b6004546001600160a01b031633146102115760405162461bcd60e51b815260040161020890610895565b60405180910390fd5b600180546001600160a01b0319166001600160a01b0392909216919091179055565b6004546001600160a01b0316331461025d5760405162461bcd60e51b815260040161020890610895565b60009081526003602090815260408083208390556002909152812055565b600080600080600380600087815260200190815260200160002054101580156102bf57506000858152600260205260409020546102bb9061012c906108ed565b4211155b600095865260026020908152604080882054600390925290962054959690945092505050565b60008054604051635ec8fe6b60e01b8152600481018890526001600160a01b0390911690635ec8fe6b90602401602060405180830381865afa15801561032f573d6000803e3d6000fd5b505050506040513d601f19601f820116820180604052508101906103539190610900565b6103935760405162461bcd60e51b8152602060048201526011602482015270446576696365206e6f742061637469766560781b6044820152606401610208565b60008681526003602081905260409091205410806103cb57506000868152600260205260409020546103c89061012c906108ed565b42115b6104175760405162461bcd60e51b815260206004820181905260248201527f546f6f206d616e792061757468656e7469636174696f6e20617474656d7074736044820152606401610208565b6000868152600260205260409020546104339061012c906108ed565b42111561044a576000868152600360205260408120555b600086815260036020526040812080549161046483610922565b909155505060008681526002602052604081204290556104868686868661060c565b90506000610494888561068a565b905060008280156104a25750815b90508015610586576000898152600360205260408120556001546001600160a01b0316156105865760006104d7898989610790565b905060008a426040516020016104f7929190918252602082015260400190565b60408051808303601f19018152908290528051602090910120600180546304cf485d60e01b8452600484018f9052602484018390526044840186905260648401919091529092506001600160a01b0316906304cf485d90608401600060405180830381600087803b15801561056b57600080fd5b505af115801561057f573d6000803e3d6000fd5b5050505050505b60408051821515815242602082015233918b917fd70445ae79bfa82bd8c52e90ca89940dff8279c6c39f91265be2f4ae43e4cae2910160405180910390a36040805182151581524260208201528a917f2dd6231b9d429a6c0f85732d2a40bd1b6b76bff557fc888903cfdfc1bdc4d947910160405180910390a298975050505050505050565b60008435158015906106215750602085013515155b801561062d5750833515155b801561063c5750602084013515155b801561064b5750604084013515155b801561065a5750606084013515155b80156106665750823515155b80156106755750602083013515155b80156106815750813515155b95945050505050565b600081356020830135604084013560608501358683146106b157600094505050505061078a565b6106bd61012c4261093b565b8210806106d357506106d042603c6108ed565b82115b156106e557600094505050505061078a565b60008054604051630be54c8f60e41b8152600481018a90526001600160a01b039091169063be54c8f090602401602060405180830381865afa15801561072f573d6000803e3d6000fd5b505050506040513d601f19601f82011682018060405250810190610753919061094e565b905080851461076a5760009550505050505061078a565b816001146107805760009550505050505061078a565b6001955050505050505b92915050565b60008383836040516020016107a793929190610967565b6040516020818303038152906040528051906020012090509392505050565b6000602082840312156107d857600080fd5b81356001600160a01b03811681146107ef57600080fd5b9392505050565b60006020828403121561080857600080fd5b5035919050565b806040810183101561078a57600080fd5b806080810183101561078a57600080fd5b60008060008060006101a0868803121561084a57600080fd5b8535945061085b876020880161080f565b935061086a8760608801610820565b92506108798760e0880161080f565b9150610889876101208801610820565b90509295509295909350565b60208082526022908201527f4f6e6c792061646d696e2063616e20706572666f726d2074686973206163746960408201526137b760f11b606082015260800190565b634e487b7160e01b600052601160045260246000fd5b8082018082111561078a5761078a6108d7565b60006020828403121561091257600080fd5b815180151581146107ef57600080fd5b600060018201610934576109346108d7565b5060010190565b8181038181111561078a5761078a6108d7565b60006020828403121561096057600080fd5b5051919050565b60006040808684378083018560005b600281101561099357838284379183019190830190600101610976565b505050808460c0850137505061010001939250505056fea264697066735822122054b502b07cb3ebcd3ee1af1ca2ae5b17458a3867e4a25568895f72319d8980a064736f6c63430008130033","opcodes":"PUSH1 0x80 PUSH1 0x40 MSTORE CALLVALUE DUP1 ISZERO PUSH2 0x10 JUMPI PUSH1 0x0 DUP1 REVERT JUMPDEST POP PUSH1 0x40 MLOAD PUSH2 0xA81 CODESIZE SUB DUP1 PUSH2 0xA81 DUP4 CODECOPY DUP2 ADD PUSH1 0x40 DUP2 SWAP1 MSTORE PUSH2 0x2F SWAP2 PUSH2 0x62 JUMP JUMPDEST PUSH1 0x4 DUP1 SLOAD CALLER PUSH1 0x1 PUSH1 0x1 PUSH1 0xA0 SHL SUB NOT SWAP2 DUP3 AND OR SWAP1 SWAP2 SSTORE PUSH1 0x0 DUP1 SLOAD SWAP1 SWAP2 AND PUSH1 0x1 PUSH1 0x1 PUSH1 0xA0 SHL SUB SWAP3 SWAP1 SWAP3 AND SWAP2 SWAP1 SWAP2 OR SWAP1 SSTORE PUSH2 0x92 JUMP JUMPDEST PUSH1 0x0 PUSH1 0x20 DUP3 DUP5 SUB SLT ISZERO PUSH2 0x74 JUMPI PUSH1 0x0 DUP1 REVERT JUMPDEST DUP2 MLOAD PUSH1 0x1 PUSH1 0x1 PUSH1 0xA0 SHL SUB DUP2 AND DUP2 EQ PUSH2 0x8B JUMPI PUSH1 0x0 DUP1 REVERT JUMPDEST SWAP4 SWAP3 POP POP POP JUMP JUMPDEST PUSH2 0x9E0 DUP1 PUSH2 0xA1 PUSH1 0x0 CODECOPY PUSH1 0x0 RETURN INVALID PUSH1 0x80 PUSH1 0x40 MSTORE CALLVALUE DUP1 ISZERO PUSH2 0x10 JUMPI PUSH1 0x0 DUP1 REVERT JUMPDEST POP PUSH1 0x4 CALLDATASIZE LT PUSH2 0xA9 JUMPI PUSH1 0x0 CALLDATALOAD PUSH1 0xE0 SHR DUP1 PUSH4 0x8D2C5879 GT PUSH2 0x71 JUMPI DUP1 PUSH4 0x8D2C5879 EQ PUSH2 0x13D JUMPI DUP1 PUSH4 0xA1ECF95D EQ PUSH2 0x150 JUMPI DUP1 PUSH4 0xB8BDF9B8 EQ PUSH2 0x170 JUMPI DUP1 PUSH4 0xCB1518A9 EQ PUSH2 0x1A0 JUMPI DUP1 PUSH4 0xCC42425F EQ PUSH2 0x1A8 JUMPI DUP1 PUSH4 0xF851A440 EQ PUSH2 0x1CB JUMPI PUSH1 0x0 DUP1 REVERT JUMPDEST DUP1 PUSH4 0xA60EB01 EQ PUSH2 0xAE JUMPI DUP1 PUSH4 0xE248D4F EQ PUSH2 0xC3 JUMPI DUP1 PUSH4 0x243791BB EQ PUSH2 0xD6 JUMPI DUP1 PUSH4 0x4A8BBA1B EQ PUSH2 0x109 JUMPI DUP1 PUSH4 0x5EFB870A EQ PUSH2 0x112 JUMPI JUMPDEST PUSH1 0x0 DUP1 REVERT JUMPDEST PUSH2 0xC1 PUSH2 0xBC CALLDATASIZE PUSH1 0x4 PUSH2 0x7C6 JUMP JUMPDEST PUSH2 0x1DE JUMP JUMPDEST STOP JUMPDEST PUSH2 0xC1 PUSH2 0xD1 CALLDATASIZE PUSH1 0x4 PUSH2 0x7F6 JUMP JUMPDEST PUSH2 0x233 JUMP JUMPDEST PUSH2 0xF6 PUSH2 0xE4 CALLDATASIZE PUSH1 0x4 PUSH2 0x7F6 JUMP JUMPDEST PUSH1 0x2 PUSH1 0x20 MSTORE PUSH1 0x0 SWAP1 DUP2 MSTORE PUSH1 0x40 SWAP1 KECCAK256 SLOAD DUP2 JUMP JUMPDEST PUSH1 0x40 MLOAD SWAP1 DUP2 MSTORE PUSH1 0x20 ADD JUMPDEST PUSH1 0x40 MLOAD DUP1 SWAP2 SUB SWAP1 RETURN JUMPDEST PUSH2 0xF6 PUSH2 0x12C DUP2 JUMP JUMPDEST PUSH1 0x0 SLOAD PUSH2 0x125 SWAP1 PUSH1 0x1 PUSH1 0x1 PUSH1 0xA0 SHL SUB AND DUP2 JUMP JUMPDEST PUSH1 0x40 MLOAD PUSH1 0x1 PUSH1 0x1 PUSH1 0xA0 SHL SUB SWAP1 SWAP2 AND DUP2 MSTORE PUSH1 0x20 ADD PUSH2 0x100 JUMP JUMPDEST PUSH1 0x1 SLOAD PUSH2 0x125 SWAP1 PUSH1 0x1 PUSH1 0x1 PUSH1 0xA0 SHL SUB AND DUP2 JUMP JUMPDEST PUSH2 0xF6 PUSH2 0x15E CALLDATASIZE PUSH1 0x4 PUSH2 0x7F6 JUMP JUMPDEST PUSH1 0x3 PUSH1 0x20 MSTORE PUSH1 0x0 SWAP1 DUP2 MSTORE PUSH1 0x40 SWAP1 KECCAK256 SLOAD DUP2 JUMP JUMPDEST PUSH2 0x183 PUSH2 0x17E CALLDATASIZE PUSH1 0x4 PUSH2 0x7F6 JUMP JUMPDEST PUSH2 0x27B JUMP JUMPDEST PUSH1 0x40 DUP1 MLOAD SWAP4 DUP5 MSTORE PUSH1 0x20 DUP5 ADD SWAP3 SWAP1 SWAP3 MSTORE ISZERO ISZERO SWAP1 DUP3 ADD MSTORE PUSH1 0x60 ADD PUSH2 0x100 JUMP JUMPDEST PUSH2 0xF6 PUSH1 0x3 DUP2 JUMP JUMPDEST PUSH2 0x1BB PUSH2 0x1B6 CALLDATASIZE PUSH1 0x4 PUSH2 0x831 JUMP JUMPDEST PUSH2 0x2E5 JUMP JUMPDEST PUSH1 0x40 MLOAD SWAP1 ISZERO ISZERO DUP2 MSTORE PUSH1 0x20 ADD PUSH2 0x100 JUMP JUMPDEST PUSH1 0x4 SLOAD PUSH2 0x125 SWAP1 PUSH1 0x1 PUSH1 0x1 PUSH1 0xA0 SHL SUB AND DUP2 JUMP JUMPDEST PUSH1 0x4 SLOAD PUSH1 0x1 PUSH1 0x1 PUSH1 0xA0 SHL SUB AND CALLER EQ PUSH2 0x211 JUMPI PUSH1 0x40 MLOAD PUSH3 0x461BCD PUSH1 0xE5 SHL DUP2 MSTORE PUSH1 0x4 ADD PUSH2 0x208 SWAP1 PUSH2 0x895 JUMP JUMPDEST PUSH1 0x40 MLOAD DUP1 SWAP2 SUB SWAP1 REVERT JUMPDEST PUSH1 0x1 DUP1 SLOAD PUSH1 0x1 PUSH1 0x1 PUSH1 0xA0 SHL SUB NOT AND PUSH1 0x1 PUSH1 0x1 PUSH1 0xA0 SHL SUB SWAP3 SWAP1 SWAP3 AND SWAP2 SWAP1 SWAP2 OR SWAP1 SSTORE JUMP JUMPDEST PUSH1 0x4 SLOAD PUSH1 0x1 PUSH1 0x1 PUSH1 0xA0 SHL SUB AND CALLER EQ PUSH2 0x25D JUMPI PUSH1 0x40 MLOAD PUSH3 0x461BCD PUSH1 0xE5 SHL DUP2 MSTORE PUSH1 0x4 ADD PUSH2 0x208 SWAP1 PUSH2 0x895 JUMP JUMPDEST PUSH1 0x0 SWAP1 DUP2 MSTORE PUSH1 0x3 PUSH1 0x20 SWAP1 DUP2 MSTORE PUSH1 0x40 DUP1 DUP4 KECCAK256 DUP4 SWAP1 SSTORE PUSH1 0x2 SWAP1 SWAP2 MSTORE DUP2 KECCAK256 SSTORE JUMP JUMPDEST PUSH1 0x0 DUP1 PUSH1 0x0 DUP1 PUSH1 0x3 DUP1 PUSH1 0x0 DUP8 DUP2 MSTORE PUSH1 0x20 ADD SWAP1 DUP2 MSTORE PUSH1 0x20 ADD PUSH1 0x0 KECCAK256 SLOAD LT ISZERO DUP1 ISZERO PUSH2 0x2BF JUMPI POP PUSH1 0x0 DUP6 DUP2 MSTORE PUSH1 0x2 PUSH1 0x20 MSTORE PUSH1 0x40 SWAP1 KECCAK256 SLOAD PUSH2 0x2BB SWAP1 PUSH2 0x12C SWAP1 PUSH2 0x8ED JUMP JUMPDEST TIMESTAMP GT ISZERO JUMPDEST PUSH1 0x0 SWAP6 DUP7 MSTORE PUSH1 0x2 PUSH1 0x20 SWAP1 DUP2 MSTORE PUSH1 0x40 DUP1 DUP9 KECCAK256 SLOAD PUSH1 0x3 SWAP1 SWAP3 MSTORE SWAP1 SWAP7 KECCAK256 SLOAD SWAP6 SWAP7 SWAP1 SWAP5 POP SWAP3 POP POP POP JUMP JUMPDEST PUSH1 0x0 DUP1 SLOAD PUSH1 0x40 MLOAD PUSH4 0x5EC8FE6B PUSH1 0xE0 SHL DUP2 MSTORE PUSH1 0x4 DUP2 ADD DUP9 SWAP1 MSTORE PUSH1 0x1 PUSH1 0x1 PUSH1 0xA0 SHL SUB SWAP1 SWAP2 AND SWAP1 PUSH4 0x5EC8FE6B SWAP1 PUSH1 0x24 ADD PUSH1 0x20 PUSH1 0x40 MLOAD DUP1 DUP4 SUB DUP2 DUP7 GAS STATICCALL ISZERO DUP1 ISZERO PUSH2 0x32F JUMPI RETURNDATASIZE PUSH1 0x0 DUP1 RETURNDATACOPY RETURNDATASIZE PUSH1 0x0 REVERT JUMPDEST POP POP POP POP PUSH1 0x40 MLOAD RETURNDATASIZE PUSH1 0x1F NOT PUSH1 0x1F DUP3 ADD AND DUP3 ADD DUP1 PUSH1 0x40 MSTORE POP DUP2 ADD SWAP1 PUSH2 0x353 SWAP2 SWAP1 PUSH2 0x900 JUMP JUMPDEST PUSH2 0x393 JUMPI PUSH1 0x40 MLOAD PUSH3 0x461BCD PUSH1 0xE5 SHL DUP2 MSTORE PUSH1 0x20 PUSH1 0x4 DUP3 ADD MSTORE PUSH1 0x11 PUSH1 0x24 DUP3 ADD MSTORE PUSH17 0x446576696365206E6F7420616374697665 PUSH1 0x78 SHL PUSH1 0x44 DUP3 ADD MSTORE PUSH1 0x64 ADD PUSH2 0x208 JUMP JUMPDEST PUSH1 0x0 DUP7 DUP2 MSTORE PUSH1 0x3 PUSH1 0x20 DUP2 SWAP1 MSTORE PUSH1 0x40 SWAP1 SWAP2 KECCAK256 SLOAD LT DUP1 PUSH2 0x3CB JUMPI POP PUSH1 0x0 DUP7 DUP2 MSTORE PUSH1 0x2 PUSH1 0x20 MSTORE PUSH1 0x40 SWAP1 KECCAK256 SLOAD PUSH2 0x3C8 SWAP1 PUSH2 0x12C SWAP1 PUSH2 0x8ED JUMP JUMPDEST TIMESTAMP GT JUMPDEST PUSH2 0x417 JUMPI PUSH1 0x40 MLOAD PUSH3 0x461BCD PUSH1 0xE5 SHL DUP2 MSTORE PUSH1 0x20 PUSH1 0x4 DUP3 ADD DUP2 SWAP1 MSTORE PUSH1 0x24 DUP3 ADD MSTORE PUSH32 0x546F6F206D616E792061757468656E7469636174696F6E20617474656D707473 PUSH1 0x44 DUP3 ADD MSTORE PUSH1 0x64 ADD PUSH2 0x208 JUMP JUMPDEST PUSH1 0x0 DUP7 DUP2 MSTORE PUSH1 0x2 PUSH1 0x20 MSTORE PUSH1 0x40 SWAP1 KECCAK256 SLOAD PUSH2 0x433 SWAP1 PUSH2 0x12C SWAP1 PUSH2 0x8ED JUMP JUMPDEST TIMESTAMP GT ISZERO PUSH2 0x44A JUMPI PUSH1 0x0 DUP7 DUP2 MSTORE PUSH1 0x3 PUSH1 0x20 MSTORE PUSH1 0x40 DUP2 KECCAK256 SSTORE JUMPDEST PUSH1 0x0 DUP7 DUP2 MSTORE PUSH1 0x3 PUSH1 0x20 MSTORE PUSH1 0x40 DUP2 KECCAK256 DUP1 SLOAD SWAP2 PUSH2 0x464 DUP4 PUSH2 0x922 JUMP JUMPDEST SWAP1 SWAP2 SSTORE POP POP PUSH1 0x0 DUP7 DUP2 MSTORE PUSH1 0x2 PUSH1 0x20 MSTORE PUSH1 0x40 DUP2 KECCAK256 TIMESTAMP SWAP1 SSTORE PUSH2 0x486 DUP7 DUP7 DUP7 DUP7 PUSH2 0x60C JUMP JUMPDEST SWAP1 POP PUSH1 0x0 PUSH2 0x494 DUP9 DUP6 PUSH2 0x68A JUMP JUMPDEST SWAP1 POP PUSH1 0x0 DUP3 DUP1 ISZERO PUSH2 0x4A2 JUMPI POP DUP2 JUMPDEST SWAP1 POP DUP1 ISZERO PUSH2 0x586 JUMPI PUSH1 0x0 DUP10 DUP2 MSTORE PUSH1 0x3 PUSH1 0x20 MSTORE PUSH1 0x40 DUP2 KECCAK256 SSTORE PUSH1 0x1 SLOAD PUSH1 0x1 PUSH1 0x1 PUSH1 0xA0 SHL SUB AND ISZERO PUSH2 0x586 JUMPI PUSH1 0x0 PUSH2 0x4D7 DUP10 DUP10 DUP10 PUSH2 0x790 JUMP JUMPDEST SWAP1 POP PUSH1 0x0 DUP11 TIMESTAMP PUSH1 0x40 MLOAD PUSH1 0x20 ADD PUSH2 0x4F7 SWAP3 SWAP2 SWAP1 SWAP2 DUP3 MSTORE PUSH1 0x20 DUP3 ADD MSTORE PUSH1 0x40 ADD SWAP1 JUMP JUMPDEST PUSH1 0x40 DUP1 MLOAD DUP1 DUP4 SUB PUSH1 0x1F NOT ADD DUP2 MSTORE SWAP1 DUP3 SWAP1 MSTORE DUP1 MLOAD PUSH1 0x20 SWAP1 SWAP2 ADD KECCAK256 PUSH1 0x1 DUP1 SLOAD PUSH4 0x4CF485D PUSH1 0xE0 SHL DUP5 MSTORE PUSH1 0x4 DUP5 ADD DUP16 SWAP1 MSTORE PUSH1 0x24 DUP5 ADD DUP4 SWAP1 MSTORE PUSH1 0x44 DUP5 ADD DUP7 SWAP1 MSTORE PUSH1 0x64 DUP5 ADD SWAP2 SWAP1 SWAP2 MSTORE SWAP1 SWAP3 POP PUSH1 0x1 PUSH1 0x1 PUSH1 0xA0 SHL SUB AND SWAP1 PUSH4 0x4CF485D SWAP1 PUSH1 0x84 ADD PUSH1 0x0 PUSH1 0x40 MLOAD DUP1 DUP4 SUB DUP2 PUSH1 0x0 DUP8 DUP1 EXTCODESIZE ISZERO DUP1 ISZERO PUSH2 0x56B JUMPI PUSH1 0x0 DUP1 REVERT JUMPDEST POP GAS CALL ISZERO DUP1 ISZERO PUSH2 0x57F JUMPI RETURNDATASIZE PUSH1 0x0 DUP1 RETURNDATACOPY RETURNDATASIZE PUSH1 0x0 REVERT JUMPDEST POP POP POP POP POP POP JUMPDEST PUSH1 0x40 DUP1 MLOAD DUP3 ISZERO ISZERO DUP2 MSTORE TIMESTAMP PUSH1 0x20 DUP3 ADD MSTORE CALLER SWAP2 DUP12 SWAP2 PUSH32 0xD70445AE79BFA82BD8C52E90CA89940DFF8279C6C39F91265BE2F4AE43E4CAE2 SWAP2 ADD PUSH1 0x40 MLOAD DUP1 SWAP2 SUB SWAP1 LOG3 PUSH1 0x40 DUP1 MLOAD DUP3 ISZERO ISZERO DUP2 MSTORE TIMESTAMP PUSH1 0x20 DUP3 ADD MSTORE DUP11 SWAP2 PUSH32 0x2DD6231B9D429A6C0F85732D2A40BD1B6B76BFF557FC888903CFDFC1BDC4D947 SWAP2 ADD PUSH1 0x40 MLOAD DUP1 SWAP2 SUB SWAP1 LOG2 SWAP9 SWAP8 POP POP POP POP POP POP POP POP JUMP JUMPDEST PUSH1 0x0 DUP5 CALLDATALOAD ISZERO DUP1 ISZERO SWAP1 PUSH2 0x621 JUMPI POP PUSH1 0x20 DUP6 ADD CALLDATALOAD ISZERO ISZERO JUMPDEST DUP1 ISZERO PUSH2 0x62D JUMPI POP DUP4 CALLDATALOAD ISZERO ISZERO JUMPDEST DUP1 ISZERO PUSH2 0x63C JUMPI POP PUSH1 0x20 DUP5 ADD CALLDATALOAD ISZERO ISZERO JUMPDEST DUP1 ISZERO PUSH2 0x64B JUMPI POP PUSH1 0x40 DUP5 ADD CALLDATALOAD ISZERO ISZERO JUMPDEST DUP1 ISZERO PUSH2 0x65A JUMPI POP PUSH1 0x60 DUP5 ADD CALLDATALOAD ISZERO ISZERO JUMPDEST DUP1 ISZERO PUSH2 0x666 JUMPI POP DUP3 CALLDATALOAD ISZERO ISZERO JUMPDEST DUP1 ISZERO PUSH2 0x675 JUMPI POP PUSH1 0x20 DUP4 ADD CALLDATALOAD ISZERO ISZERO JUMPDEST DUP1 ISZERO PUSH2 0x681 JUMPI POP DUP2 CALLDATALOAD ISZERO ISZERO JUMPDEST SWAP6 SWAP5 POP POP POP POP POP JUMP JUMPDEST PUSH1 0x0 DUP2 CALLDATALOAD PUSH1 0x20 DUP4 ADD CALLDATALOAD PUSH1 0x40 DUP5 ADD CALLDATALOAD PUSH1 0x60 DUP6 ADD CALLDATALOAD DUP7 DUP4 EQ PUSH2 0x6B1 JUMPI PUSH1 0x0 SWAP5 POP POP POP POP POP PUSH2 0x78A JUMP JUMPDEST PUSH2 0x6BD PUSH2 0x12C TIMESTAMP PUSH2 0x93B JUMP JUMPDEST DUP3 LT DUP1 PUSH2 0x6D3 JUMPI POP PUSH2 0x6D0 TIMESTAMP PUSH1 0x3C PUSH2 0x8ED JUMP JUMPDEST DUP3 GT JUMPDEST ISZERO PUSH2 0x6E5 JUMPI PUSH1 0x0 SWAP5 POP POP POP POP POP PUSH2 0x78A JUMP JUMPDEST PUSH1 0x0 DUP1 SLOAD PUSH1 0x40 MLOAD PUSH4 0xBE54C8F PUSH1 0xE4 SHL DUP2 MSTORE PUSH1 0x4 DUP2 ADD DUP11 SWAP1 MSTORE PUSH1 0x1 PUSH1 0x1 PUSH1 0xA0 SHL SUB SWAP1 SWAP2 AND SWAP1 PUSH4 0xBE54C8F0 SWAP1 PUSH1 0x24 ADD PUSH1 0x20 PUSH1 0x40 MLOAD DUP1 DUP4 SUB DUP2 DUP7 GAS STATICCALL ISZERO DUP1 ISZERO PUSH2 0x72F JUMPI RETURNDATASIZE PUSH1 0x0 DUP1 RETURNDATACOPY RETURNDATASIZE PUSH1 0x0 REVERT JUMPDEST POP POP POP POP PUSH1 0x40 MLOAD RETURNDATASIZE PUSH1 0x1F NOT PUSH1 0x1F DUP3 ADD AND DUP3 ADD DUP1 PUSH1 0x40 MSTORE POP DUP2 ADD SWAP1 PUSH2 0x753 SWAP2 SWAP1 PUSH2 0x94E JUMP JUMPDEST SWAP1 POP DUP1 DUP6 EQ PUSH2 0x76A JUMPI PUSH1 0x0 SWAP6 POP POP POP POP POP POP PUSH2 0x78A JUMP JUMPDEST DUP2 PUSH1 0x1 EQ PUSH2 0x780 JUMPI PUSH1 0x0 SWAP6 POP POP POP POP POP POP PUSH2 0x78A JUMP JUMPDEST PUSH1 0x1 SWAP6 POP POP POP POP POP POP JUMPDEST SWAP3 SWAP2 POP POP JUMP JUMPDEST PUSH1 0x0 DUP4 DUP4 DUP4 PUSH1 0x40 MLOAD PUSH1 0x20 ADD PUSH2 0x7A7 SWAP4 SWAP3 SWAP2 SWAP1 PUSH2 0x967 JUMP JUMPDEST PUSH1 0x40 MLOAD PUSH1 0x20 DUP2 DUP4 SUB SUB DUP2 MSTORE SWAP1 PUSH1 0x40 MSTORE DUP1 MLOAD SWAP1 PUSH1 0x20 ADD KECCAK256 SWAP1 POP SWAP4 SWAP3 POP POP POP JUMP JUMPDEST PUSH1 0x0 PUSH1 0x20 DUP3 DUP5 SUB SLT ISZERO PUSH2 0x7D8 JUMPI PUSH1 0x0 DUP1 REVERT JUMPDEST DUP2 CALLDATALOAD PUSH1 0x1 PUSH1 0x1 PUSH1 0xA0 SHL SUB DUP2 AND DUP2 EQ PUSH2 0x7EF JUMPI PUSH1 0x0 DUP1 REVERT JUMPDEST SWAP4 SWAP3 POP POP POP JUMP JUMPDEST PUSH1 0x0 PUSH1 0x20 DUP3 DUP5 SUB SLT ISZERO PUSH2 0x808 JUMPI PUSH1 0x0 DUP1 REVERT JUMPDEST POP CALLDATALOAD SWAP2 SWAP1 POP JUMP JUMPDEST DUP1 PUSH1 0x40 DUP2 ADD DUP4 LT ISZERO PUSH2 0x78A JUMPI PUSH1 0x0 DUP1 REVERT JUMPDEST DUP1 PUSH1 0x80 DUP2 ADD DUP4 LT ISZERO PUSH2 0x78A JUMPI PUSH1 0x0 DUP1 REVERT JUMPDEST PUSH1 0x0 DUP1 PUSH1 0x0 DUP1 PUSH1 0x0 PUSH2 0x1A0 DUP7 DUP9 SUB SLT ISZERO PUSH2 0x84A JUMPI PUSH1 0x0 DUP1 REVERT JUMPDEST DUP6 CALLDATALOAD SWAP5 POP PUSH2 0x85B DUP8 PUSH1 0x20 DUP9 ADD PUSH2 0x80F JUMP JUMPDEST SWAP4 POP PUSH2 0x86A DUP8 PUSH1 0x60 DUP9 ADD PUSH2 0x820 JUMP JUMPDEST SWAP3 POP PUSH2 0x879 DUP8 PUSH1 0xE0 DUP9 ADD PUSH2 0x80F JUMP JUMPDEST SWAP2 POP PUSH2 0x889 DUP8 PUSH2 0x120 DUP9 ADD PUSH2 0x820 JUMP JUMPDEST SWAP1 POP SWAP3 SWAP6 POP SWAP3 SWAP6 SWAP1 SWAP4 POP JUMP JUMPDEST PUSH1 0x20 DUP1 DUP3 MSTORE PUSH1 0x22 SWAP1 DUP3 ADD MSTORE PUSH32 0x4F6E6C792061646D696E2063616E20706572666F726D20746869732061637469 PUSH1 0x40 DUP3 ADD MSTORE PUSH2 0x37B7 PUSH1 0xF1 SHL PUSH1 0x60 DUP3 ADD MSTORE PUSH1 0x80 ADD SWAP1 JUMP JUMPDEST PUSH4 0x4E487B71 PUSH1 0xE0 SHL PUSH1 0x0 MSTORE PUSH1 0x11 PUSH1 0x4 MSTORE PUSH1 0x24 PUSH1 0x0 REVERT JUMPDEST DUP1 DUP3 ADD DUP1 DUP3 GT ISZERO PUSH2 0x78A JUMPI PUSH2 0x78A PUSH2 0x8D7 JUMP JUMPDEST PUSH1 0x0 PUSH1 0x20 DUP3 DUP5 SUB SLT ISZERO PUSH2 0x912 JUMPI PUSH1 0x0 DUP1 REVERT JUMPDEST DUP2 MLOAD DUP1 ISZERO ISZERO DUP2 EQ PUSH2 0x7EF JUMPI PUSH1 0x0 DUP1 REVERT JUMPDEST PUSH1 0x0 PUSH1 0x1 DUP3 ADD PUSH2 0x934 JUMPI PUSH2 0x934 PUSH2 0x8D7 JUMP JUMPDEST POP PUSH1 0x1 ADD SWAP1 JUMP JUMPDEST DUP2 DUP2 SUB DUP2 DUP2 GT ISZERO PUSH2 0x78A JUMPI PUSH2 0x78A PUSH2 0x8D7 JUMP JUMPDEST PUSH1 0x0 PUSH1 0x20 DUP3 DUP5 SUB SLT ISZERO PUSH2 0x960 JUMPI PUSH1 0x0 DUP1 REVERT JUMPDEST POP MLOAD SWAP2 SWAP1 POP JUMP JUMPDEST PUSH1 0x0 PUSH1 0x40 DUP1 DUP7 DUP5 CALLDATACOPY DUP1 DUP4 ADD DUP6 PUSH1 0x0 JUMPDEST PUSH1 0x2 DUP2 LT ISZERO PUSH2 0x993 JUMPI DUP4 DUP3 DUP5 CALLDATACOPY SWAP2 DUP4 ADD SWAP2 SWAP1 DUP4 ADD SWAP1 PUSH1 0x1 ADD PUSH2 0x976 JUMP JUMPDEST POP POP POP DUP1 DUP5 PUSH1 0xC0 DUP6 ADD CALLDATACOPY POP POP PUSH2 0x100 ADD SWAP4 SWAP3 POP POP POP JUMP INVALID LOG2 PUSH5 0x6970667358 0x22 SLT KECCAK256 SLOAD 0xB5 MUL 0xB0 PUSH29 0xB3EBCD3EE1AF1CA2AE5B17458A3867E4A25568895F72319D8980A06473 PUSH16 0x6C634300081300330000000000000000 "},"methodIdentifiers":{"AUTH_WINDOW()":"4a8bba1b","MAX_AUTH_ATTEMPTS()":"cb1518a9","admin()":"f851a440","authAttemptCount(bytes32)":"a1ecf95d","deviceRegistry()":"5efb870a","getAuthStats(bytes32)":"b8bdf9b8","integrityLog()":"8d2c5879","lastAuthTimestamp(bytes32)":"243791bb","resetAuthAttempts(bytes32)":"0e248d4f","setIntegrityLog(address)":"0a60eb01","verifyAndAuthenticate(bytes32,uint256[2],uint256[2][2],uint256[2],uint256[4])":"cc42425f"}}}}}